:020000040800F2
:1040000000060020155300084DFD0A086142000813
:10401000D5FC0A08CDFC0A08D1FC0A081753000891
:104020001753000817530008175300081D5A1108AA
:1040300017530008175300081753000817530008B8
:1040400017530008175300081753000817530008A8
:104050001753000817530008ADBC1108D5BC110850
:10406000FDBC110825BD11084DBD110829621108BC
:10407000516211087D621108A9621108D562110808
:10408000FD62110829631108AD61110871C90A08A0
:1040900081C90A0895C90A081753000875BD110897
:1040A000C1BE1108C5BE1108D9BE1108DDBE110878
:1040B000E1BE110817530008F5BE1108816B110805
:1040C000956B1108B96B1108CD6B110817530008D7
:1040D000175300081753000849BE11085DBE1108A8
:1040E000D9BD1108175300081753000817530008CB
:1040F0001753000817530008175300085563110899
:1041000017530008C56F110809BF1108175300089D
:1041100071BE110817530008175300081753000801
:1041200081631108A9631108D5631108016411089E
:104130002D6411081753000817530008A9C90A086D
:10414000B9C90A08CDC90A08175300083DB81108B3
:104150005564110881641108AD64110885BE110809
:104160001753000817530008175300081753000887
:104170001753000817530008175300081753000877
:10418000175300081753000899BE1108ADBE110857
:104190001753000817530008175300081753000857
:1041A0001753000817530008175300081753000847
:1041B0001753000817530008175300081753000837
:1041C0001753000817530008175300081753000827
:1041D0001753000817530008175300081753000817
:1041E00095900008D19F01083D2302089D570308C0
:1041F000318F0508FD940508910706081D71060812
:10420000ED780608417C0608D517070811670808ED
:1042100075AC08088DB90808E1C90A0815CC0A0868
:1042200069D00A0851F70A08B90C0B0859550C084F
:10423000B9BB0C0825FE0C0825600D0825EB0D0800
:10424000F5840F0829F30F0889421008814D1008E2
:10425000597E10083D851008000000000000000095
:10426000EFF30383EFF30982EFF30881DFF814D053
:104270002DE9FE4F684601F0B9F9BDE8FE4F8D46C5
:1042800070470000DC2B0020F1EE101AA0EC200A91
:1042900001607047A0EC108A704700BF81F00041B8
:1042A00002E000BF83F0004330B54FEA41044FEA1B
:1042B000430594EA050F08BF90EA020F1FBF54EAB6
:1042C000000C55EA020C7FEA645C7FEA655C00F052
:1042D000E2804FEA5454D4EB5555B8BF6D420CDD23
:1042E0002C4480EA020281EA030382EA000083EAA6
:1042F000010180EA020281EA0303362D88BF30BD46
:1043000011F0004F4FEA01314FF4801C4CEA11319B
:1043100002D0404261EB410113F0004F4FEA0333FA
:104320004CEA133302D0524263EB430394EA050F85
:1043300000F0A780A4F10104D5F1200E0DDB02FAF4
:104340000EFC22FA05F2801841F1000103FA0EF288
:10435000801843FA05F359410EE0A5F120050EF14E
:10436000200E012A03FA0EFC28BF4CF0020C43FA7F
:1043700005F3C01851EBE37101F0004507D54FF08C
:10438000000EDCF1000C7EEB00006EEB0101B1F5DC
:10439000801F1BD3B1F5001F0CD349085FEA300022
:1043A0004FEA3C0C04F101044FEA445212F5800F2D
:1043B00080F09A80BCF1004F08BF5FEA500C50F1CA
:1043C000000041EB045141EA050130BD5FEA4C0CAD
:1043D000404141EB0101013C28BFB1F5801FE9D20A
:1043E00091F0000F04BF01460020B1FA81F308BF2D
:1043F0002033A3F10B03B3F120020CDA0C3208DDF9
:1044000002F1140CC2F10C0201FA0CF021FA02F1D3
:104410000CE002F11402D8BFC2F1200C01FA02F143
:1044200020FA0CFCDCBF41EA0C019040E41AA2BF68
:1044300001EB0451294330BD6FEA04041F3C1CDA30
:104440000C340EDC04F11404C4F1200220FA04F050
:1044500001FA02F340EA030021FA04F345EA0301FA
:1044600030BDC4F10C04C4F1200220FA02F001FABC
:1044700004F340EA0300294630BD21FA04F029463E
:1044800030BD94F0000F83F4801306BF81F48011D7
:104490000134013D4EE77FEA645C18BF7FEA655C4A
:1044A00029D094EA050F08BF90EA020F05D054EA1C
:1044B000000C04BF1946104630BD91EA030F1EBF21
:1044C0000021002030BD5FEA545C05D14000494125
:1044D00028BF41F0004130BD14F580043CBF01F518
:1044E000801130BD01F0004545F0FE4141F47001FE
:1044F0004FF0000030BD7FEA645C1ABF19461046D9
:104500007FEA655C1CBF0B46024650EA013406BFD9
:1045100052EA033591EA030F41F4002130BD00BF98
:1045200090F0000F04BF0021704730B54FF4806455
:1045300004F132044FF000054FF0000150E700BFD6
:1045400090F0000F04BF0021704730B54FF4806435
:1045500004F1320410F0004548BF40424FF0000122
:104560003EE700BF42004FEAE2014FEA31014FEA65
:1045700002701FBF12F07F4393F07F4F81F06051B4
:10458000704732F07F4208BF704793F07F4F04BFFF
:1045900041F40021704730B54FF4607401F00045DC
:1045A00021F000411CE700BF50EA010208BF70473C
:1045B00030B54FF000050AE050EA010208BF70472D
:1045C00030B511F0004502D5404261EB41014FF496
:1045D000806404F132045FEA915C3FF4D8AE4FF09E
:1045E00003025FEADC0C18BF03325FEADC0C18BF81
:1045F000033202EBDC02C2F1200300FA03FC20FAD2
:1046000002F001FA03FE40EA0E0021FA02F114441E
:10461000BDE600BF70B54FF0FF0C4CF4E06C1CEA37
:1046200011541DBF1CEA135594EA0C0F95EA0C0FA8
:1046300000F0DEF82C4481EA030621EA4C5123EA1B
:104640004C5350EA013518BF52EA033541F480114A
:1046500043F4801338D0A0FB02CE4FF00005E1FBFD
:1046600002E506F00042E0FB03E54FF00006E1FB47
:1046700003569CF0000F18BF4EF0010EA4F1FF048A
:10468000B6F5007F64F5407404D25FEA4E0E6D41CA
:1046900046EB060642EAC62141EA55514FEAC520DB
:1046A00040EA5E504FEACE2EB4F1FD0C88BFBCF557
:1046B000E06F1ED8BEF1004F08BF5FEA500E50F108
:1046C000000041EB045170BD06F0004646EA0101CE
:1046D00040EA020081EA0301B4EB5C04C2BFD4EB00
:1046E0000C0541EA045170BD41F480114FF0000EF9
:1046F000013C00F3AB8014F1360FDEBF002001F067
:10470000004170BDC4F10004203C35DA0C341BDCE0
:1047100004F11404C4F1200500FA05F320FA04F0B2
:1047200001FA05F240EA020001F0004221F00041E6
:1047300010EBD37021FA04F642EB06015EEA430E59
:1047400008BF20EAD37070BDC4F10C04C4F1200589
:1047500000FA04F320FA05F001FA04F240EA02003C
:1047600001F0004110EBD37041F100015EEA430E0D
:1047700008BF20EAD37070BDC4F1200500FA05F22D
:104780004EEA020E20FA04F301FA05F243EA0203AC
:1047900021FA04F001F0004121FA04F220EA0200BB
:1047A00000EBD3705EEA430E08BF20EAD37070BD01
:1047B00094F0000F0FD101F00046400041EB0101E1
:1047C00011F4801F08BF013CF7D041EA060195F0C3
:1047D000000F18BF704703F00046520043EB03037D
:1047E00013F4801F08BF013DF7D043EA060370476A
:1047F00094EA0C0F0CEA135518BF95EA0C0F0CD075
:1048000050EA410618BF52EA4306D1D181EA0301BA
:1048100001F000414FF0000070BD50EA410606BFB4
:104820001046194652EA430619D094EA0C0F02D1F9
:1048300050EA013613D195EA0C0F05D152EA03363E
:104840001CBF104619460AD181EA030101F000415C
:1048500041F0FE4141F470014FF0000070BD41F0A5
:10486000FE4141F4780170BD70B54FF0FF0C4CF47F
:10487000E06C1CEA11541DBF1CEA135594EA0C0F9E
:1048800095EA0C0F00F0A7F8A4EB050481EA030EEB
:1048900052EA03354FEA013100F088804FEA0333D2
:1048A0004FF0805545EA131343EA12634FEA0222A0
:1048B00045EA111545EA10654FEA00260EF0004161
:1048C0009D4208BF964244F1FD0404F5407402D2B3
:1048D0005B084FEA3202B61A65EB03055B084FEA44
:1048E00032024FF480104FF4002CB6EB020E75EB41
:1048F000030E22BFB61A754640EA0C005B084FEA69
:104900003202B6EB020E75EB030E22BFB61A7546E5
:1049100040EA5C005B084FEA3202B6EB020E75EB30
:10492000030E22BFB61A754640EA9C005B084FEAA8
:104930003202B6EB020E75EB030E22BFB61A7546B5
:1049400040EADC0055EA060E18D04FEA051545EAA4
:1049500016754FEA06164FEAC30343EA52734FEA4D
:10496000C2025FEA1C1CC0D111F4801F0BD141EAC6
:1049700000014FF000004FF0004CB6E711F4801F2B
:1049800004BF01430020B4F1FD0C88BFBCF5E06F0B
:104990003FF6AFAEB5EB030C04BFB6EB020C5FEA1B
:1049A000500C50F1000041EB045170BD0EF0004E70
:1049B0004EEA113114EB5C04C2BFD4EB0C0541EAA2
:1049C000045170BD41F480114FF0000E013C90E69F
:1049D00045EA060E8DE60CEA135594EA0C0F08BF63
:1049E00095EA0C0F3FF43BAF94EA0C0F0AD150EA62
:1049F00001347FF434AF95EA0C0F7FF425AF1046F5
:104A000019462CE795EA0C0F06D152EA03353FF41C
:104A1000FDAE1046194622E750EA410618BF52EA99
:104A200043067FF4C5AE50EA41047FF40DAF52EA6D
:104A300043057FF4EBAE12E74FF0FF3C06E000BF0A
:104A40004FF0010C02E000BF4FF0010C4DF804CD17
:104A50004FEA410C7FEA6C5C4FEA430C18BF7FEAD7
:104A60006C5C1BD001B050EA410C0CBF52EA430C05
:104A700091EA030F02BF90EA020F0020704710F185
:104A8000000F91EA030F58BF994208BF90422CBF14
:104A9000D8176FEAE37040F0010070474FEA410C0D
:104AA0007FEA6C5C02D150EA013C07D14FEA430C2B
:104AB0007FEA6C5CD6D152EA033CD3D05DF8040B9C
:104AC000704700BF8446104662468C4619466346CE
:104AD00000E000BF01B5FFF7B7FF002848BF10F1A5
:104AE000000F01BD4DF808EDFFF7F4FF0CBF0120EA
:104AF00000205DF808FB00BF4DF808EDFFF7EAFF66
:104B000034BF012000205DF808FB00BF4DF808ED20
:104B1000FFF7E0FF94BF012000205DF808FB00BF15
:104B20004DF808EDFFF7CEFF94BF012000205DF89F
:104B300008FB00BF4DF808EDFFF7C4FF34BF0120AC
:104B400000205DF808FB00BF4FEA410C7FEA6C5C77
:104B500002D150EA013C0AD14FEA430C7FEA6C5C77
:104B600002D152EA033C02D14FF0000070474FF0EF
:104B7000010070474FEA410212F5001215D211D51B
:104B80006FF47873B3EB625212D94FEAC12343F04A
:104B9000004343EA505311F0004F23FA02F018BFCC
:104BA000404270474FF00000704750EA013005D195
:104BB00011F0004008BF6FF0004070474FF0000058
:104BC000704700BF4A0011D212F5001211D20DD564
:104BD0006FF47873B3EB62520ED44FEAC12343F003
:104BE000004343EA505323FA02F070474FF00000AD
:104BF000704750EA013002D14FF0FF3070474FF05C
:104C0000000070474FEA4102B2F1E04324BFB3F520
:104C1000001CDCF1FE5C0DD901F0004C4FEAC00233
:104C20004CEA5070B2F1004F40EB830008BF20F017
:104C30000100704711F0804F21D113F13872BCBFD1
:104C400001F00040704741F480114FEA5252C2F126
:104C50001802C2F1200C10FA0CF320FA02F018BF6F
:104C600040F001004FEAC1234FEAD32303FA0CFCC2
:104C700040EA0C0023FA02F34FEA4303CCE77FEA51
:104C8000625307D150EA01331EBF4FF0FE4040F49B
:104C90004000704701F0004040F0FE4040F400004A
:104CA000704700BF80F0004002E000BF81F000418B
:104CB00042001FBF5FEA410392EA030F7FEA226CC2
:104CC0007FEA236C6AD04FEA1262D2EB1363C1BF52
:104CD000D218414048404140B8BF5B42192B88BFC1
:104CE000704710F0004F40F4000020F07F4018BFE4
:104CF000404211F0004F41F4000121F07F4118BF04
:104D0000494292EA030F3FD0A2F1010241FA03FCAB
:104D100010EB0C00C3F1200301FA03F100F0004393
:104D200002D5494260EB4000B0F5000F13D3B0F15B
:104D3000807F06D340084FEA310102F10102FE2ACA
:104D400051D2B1F1004F40EBC25008BF20F001003A
:104D500040EA03007047490040EB0000013A28BFD9
:104D6000B0F5000FEDD2B0FA80FCACF1080CB2EB5C
:104D70000C0200FA0CF0AABF00EBC25052421843DA
:104D8000BCBFD0401843704792F0000F81F400017F
:104D900006BF80F400000132013BB5E74FEA410352
:104DA0007FEA226C18BF7FEA236C21D092EA030FBE
:104DB00004D092F0000F08BF0846704790EA010F38
:104DC0001CBF0020704712F07F4F04D1400028BF65
:104DD00040F00040704712F100723CBF00F5000047
:104DE000704700F0004343F0FE4040F4000070477D
:104DF0007FEA226216BF08467FEA23630146420229
:104E000006BF5FEA412390EA010F40F4800070473B
:104E10004FF0000304E000BF10F0004348BF4042E1
:104E20005FEA000C08BF704743F0964301464FF01D
:104E300000001CE050EA010208BF70474FF0000379
:104E40000AE000BF50EA010208BF704711F00043BA
:104E500002D5404261EB41015FEA010C02BF84468A
:104E60000146002043F0B64308BFA3F18053A3F5E9
:104E70000003BCFA8CF2083AA3EBC25310DB01FA30
:104E800002FC634400FA02FCC2F12002BCF1004FB4
:104E900020FA02F243EB020008BF20F00100704745
:104EA00002F1200201FA02FCC2F1200250EA4C0099
:104EB00021FA02F243EB020008BF20EADC707047DF
:104EC0007BB972B90029BEBF00204FF0004106E057
:104ED00008BF00281CBF6FF000414FF0FF3000F00A
:104EE00017BAADF1080C6DE904CE002909DB002BDF
:104EF0001ADB00F0A5F8DDF804E0DDE9022304B0D8
:104F00007047404261EB4101002B1BDB00F098F839
:104F1000DDF804E0DDE9022304B0404261EB410129
:104F2000524263EB43037047524263EB430300F08A
:104F300087F8DDF804E0DDE9022304B0404261EBCC
:104F400041017047524263EB430300F079F8DDF80A
:104F500004E0DDE9022304B0524263EB43037047EF
:104F600053B94AB9002908BF00281CBF4FF0FF31D0
:104F70004FF0FF3000F0CCB9ADF1080C6DE904CE74
:104F800000F05EF8DDF804E0DDE9022304B07047CC
:104F9000430803F05533C01A830803F0333300F09D
:104FA0003330184400EB101000F00F3000EB0020FD
:104FB00000EB0040000E704780EA104080EA1020AD
:104FC00080EA101046F6961300F00F0043FA00F046
:104FD00000F00100704700BF07EE900AF5EEC07ABE
:104FE000F1EE10FA01D400F00BB8F1EE677A08B5D3
:104FF00017EE900A00F004F8404261EB410108BD51
:10500000D0B5FFF7AFFA0C4B002206460F46FFF76C
:1050100001FBFFF7D7FD0446FFF782FA074B00229A
:10502000FFF7F8FA02460B4630463946FFF73AF9E1
:10503000FFF7C8FD2146D0BD0000F03D0000F04163
:105040002DE9F047089D04468E46002B4DD18A423B
:10505000944669D9B2FA82F252B101FA02F3C2F16E
:10506000200120FA01F10CFA02FC41EA030E9440FF
:105070004FEA1C48210CBEFBF8F61FFA8CF708FB20
:1050800016E341EA034306FB07F199420AD91CEBF8
:10509000030306F1FF3080F01F81994240F21C812A
:1050A000023E63445B1AA4B2B3FBF8F008FB103372
:1050B00044EA034400FB07F7A7420AD91CEB0404A7
:1050C00000F1FF3380F00A81A74240F20781644477
:1050D000023840EA0640E41B00261DB1D4400023FC
:1050E000C5E900433146BDE8F0878B4209D9002D60
:1050F00000F0EF800026C5E9000130463146BDE8EA
:10510000F087B3FA83F6002E4AD18B4202D3824253
:1051100000F2F980841A61EB030301209E46002D02
:10512000E0D0C5E9004EDDE702B9FFDEB2FA82F257
:10513000002A40F09280A1EB0C014FEA1C471FFAB5
:105140008CFE0126200CB1FBF7F307FB131140EA9C
:1051500001410EFB03F0884208D91CEB010103F169
:10516000FF3802D2884200F2CB804346091AA4B22B
:10517000B1FBF7F007FB101144EA01440EFB00FEFF
:10518000A64508D91CEB040400F1FF3102D2A64564
:1051900000F2BB800846A4EB0E0440EA03409CE703
:1051A000C6F12007B34022FA07FC4CEA030C20FAB0
:1051B00007F401FA06F31C43F9404FEA1C4900FAD0
:1051C00006F3B1FBF9F8200C1FFA8CFE09FB18114D
:1051D00040EA014108FB0EF0884202FA06F20BD9C0
:1051E0001CEB010108F1FF3A80F08880884240F210
:1051F0008580A8F102086144091AA4B2B1FBF9F054
:1052000009FB101144EA014100FB0EFE8E4508D94E
:105210001CEB010100F1FF346CD28E456AD90238D3
:10522000614440EA0840A0FB0294A1EB0E01A142B8
:10523000C846A64656D353D05DB1B3EB080261EB26
:105240000E0101FA07F722FA06F3F1401F43C5E900
:10525000007100263146BDE8F087C2F12003D84036
:105260000CFA02FC21FA03F3914001434FEA1C4778
:105270001FFA8CFEB3FBF7F007FB10360B0C43EA6A
:10528000064300FB0EF69E4204FA02F408D91CEB1A
:10529000030300F1FF382FD29E422DD90238634418
:1052A0009B1B89B2B3FBF7F607FB163341EA0341B8
:1052B00006FB0EF38B4208D91CEB010106F1FF3807
:1052C00016D28B4214D9023E6144C91A46EA0046FE
:1052D00038E72E46284605E70646E3E61846F8E690
:1052E0004B45A9D2B9EB020864EB0C0E0138A3E7D9
:1052F0004646EAE7204694E74046D1E7D0467BE7BA
:10530000023B614432E7304609E76444023842E731
:10531000704700BF02E000F000F8FEE772B63748C1
:1053200080F30888364880F3098836483649086093
:1053300040F20000CCF200004EF63471CEF20001D3
:105340000860BFF34F8FBFF36F8F40F20000C0F2D1
:10535000F0004EF68851CEF200010860BFF34F8F87
:10536000BFF36F8F4FF00000E1EE100A4EF63C7174
:10537000CEF200010860062080F31488BFF36F8F1F
:1053800015F124FF15F12EF84FF055301F491B4A37
:1053900091423CBF41F8040BFAE71D49184A91427B
:1053A0003CBF41F8040BFAE71A491B4A1B4B9A42CF
:1053B0003EBF51F8040B42F8040BF8E700201849EF
:1053C000184A91423CBF41F8040BFAE715F102FF7D
:1053D00015F15CF8144C154DAC4203DA54F8041B7B
:1053E0008847F9E703F0AEFD114C124DAC4203DAE9
:1053F00054F8041B8847F9E715F1EABE00060020BF
:10540000002200200040000808ED00E0000000201D
:1054100000060020807F150800220020E4290020DB
:10542000E829002070920120E0410008584200085D
:1054300058420008584200082DE9F04F2DED108A1F
:10544000C1F80CD0C3689D46BDEC108ABDE8F08F52
:10545000002383F311882846A047002014F15AFD49
:10546000FEE714F1EFFB00DFFEE7000001F0FF01B3
:10547000102A2BDB10F0070F08D010F8013B013A7F
:105480008B422DD010F0070F42B3F6D1F0B441EAB1
:10549000012141EA014122F007047FF000070023C7
:1054A000F0E80256083C85EA010586EA010685FA1D
:1054B00047F5A3FA87F586FA47F6A5FA87F68EB977
:1054C000EED1F0BC01F0FF0102F0070232B110F89A
:1054D000013B013A83EA010313B1F8D10020704780
:1054E00001387047002D06BF35460338073815F0E0
:1054F000010F07D1013015F4807F02BF013015F490
:10550000C03F0130F0BC0138704700BFEC46A0E856
:10551000F05F4FF000007047B0E8F05FE54608002C
:1055200008BF0120704700BF10F8012B11F8013BA4
:10553000012A28BF9A42F7D0D01A7047034613F8C1
:10554000012B002AFBD1181A0138704738B5002208
:10555000002304460D46FFF7CFFA28B92046294616
:10556000BDE8384000F00AB8204605F1004100F0DF
:1055700005F8404261EB410138BD00BFD0B50C4B8E
:10558000002206460F46FFF745F8FFF71BFB0446CF
:10559000FEF7C6FF074B0022FFF73CF802460B461A
:1055A00030463946FEF77EFEFFF70CFB2146D0BDA4
:1055B0000000F03D0000F04110B5044620461CB14B
:1055C00054F80C3B013300D110BD0822012100F03A
:1055D0005DFB54F80C0C54F8082C14F8041C121A37
:1055E000B2FBF1F200F052FBE8E700002DE9F041D8
:1055F000D0E90031C26A5C4C12F0040FA6B018BFAB
:105600000B46CDE90003D0064CBF03F1200203F1A5
:1056100068020392DA699B6900210291D209039919
:105620001B8802F004020A4303924FF0E02203F4C5
:105630007F43D2F8882D02F4A002B2F5A00F08BF74
:105640000122A3F53E4108BF02924B424B41049315
:1056500004260127454D03A82C6000F015FA4448A4
:105660000422012100F012FB0422012102A800F013
:105670000DFB01981022012100F008FB0098202268
:1056800001210C3000F002FB0198042201211030AE
:1056900000F0FCFA0422012103A800F0F7FA0198B7
:1056A0000C220121143000F0F1FA0C2200980121A3
:1056B00000F0ECFA029BDA071ED5009BDB6ADB06E2
:1056C0004DD415A8FEF7E6FDDDF804C00DF1140E6B
:1056D0000CF120030CF1600818685968724603C287
:1056E000083343459646F7D1DCF860302593842291
:1056F000012105A800F0CAFA00F0B8F8FFF75CFF36
:105700004FF0E023D3F8003D03F47023B3F5402FAE
:105710000ED0184B05931433069305A84FF0FF33B2
:10572000CDE908338DF81C608DF82870FFF744FF31
:105730002B68A34206D0104B05930422012105A833
:1057400000F0A4FA00F016FA002883D0049B1BB1E5
:10575000019A93690233936126B0BDE8F08105A8F0
:10576000FEF792FDC3E700BFED55CEACE82900205F
:105770002030120828ED00E0ACCE55ED08B526200B
:1057800012F102FD104B1A6A42F400321A621A6AD0
:1057900022F400321A621A6A1A6C42F400321A6455
:1057A0001A6E42F400321A661B6E084B2E229A6063
:1057B00000221A601A685A6842F20C02DA60044B3E
:1057C00001221A7008BD00BF0038024000440040AA
:1057D000142C002037B50E4D2A78202A15D10D4CF7
:1057E0000D4823680D490192184415F17DF823688E
:1057F000019A0A48203300212360297019F19CFD89
:1058000003B0BDE8304015F1ABBC03B030BD00BF04
:10581000DC2B0020042C002080871508DE2B0020C4
:10582000014B1868704700BFFCFF1F08014B02487E
:10583000C01A70478087150800002008004870478C
:10584000808715080749084B00225B1A9A4201D34A
:105850000120704751F8040B013001D10432F5E703
:105860000020704780871508000020082DE9F74FB9
:10587000574BDFF884911F68564BDFF880811B7807
:10588000554DDFF87CA107F56A5718371F4414F10E
:10589000FDF802240646A9EB080B0EB13A2C42D9BA
:1058A000A9EB0803B3EB070C25D4DFF858E14B4A0A
:1058B000AEEB0200661C0C216045F6B204FB01F160
:1058C0006BDD681801276A506244077242601F4608
:1058D000DB1B73D44249434FCA1B02349A424FF038
:1058E0000C02E4B206FB02F262DDA91801203B447F
:1058F000AF5008724B603B2C62D80C235C432B19D1
:1059000001221A724FF0FF322A515A60364B1B782F
:105910002BB1364B1B682B60354B1B686B602E48D8
:1059200003B0BDE8F08F336AF06953450ABF314BCD
:10593000F31AA3EB0A0380B1019315F14FF9019B10
:1059400058B122460C214A43A81801210172F1697D
:10595000A95001340D31E4B241600C2000FB04FC7D
:1059600005EB0C02012145F80C6006F13C0C1172AC
:10597000C2F804C06218D2B24243A8181F44017290
:10598000316AA950023419445F45E4B24160B2D291
:10599000304614F18BF806467FE705EB010C4FF01B
:1059A00001086A508CF80880CCF804E007448FE7BF
:1059B000AB180120AF50187259609CE734469AE743
:1059C000012385F8CC324FF0FF33C5E9B1339DE7B1
:1059D000042C0020DC2B002004220020E8290020D9
:1059E000000003207092012000220020082C0020DB
:1059F000002C0020002200200000200880871508CD
:105A000000060020709201200C4B1B7810B50BB9DA
:105A1000FFF7B4FE0A490B4800230A689206FCD53A
:105A20004A681C5CD2B2944205D10133DBB20E2B22
:105A3000F3D1002010BD0023EFE700BF142C00209D
:105A4000004400402430120838B5084B1B78044647
:105A50000BB9FFF793FE064DE4B26C602B685B0652
:105A600000D538BD15F17CFBF8E700BF142C0020F1
:105A70000044004010B5441E14F8010F00B910BDD9
:105A8000FFF7E2FFF8E7000070B502680446EFF3A5
:105A90000581D9205369C9B2AAF01EF9294B1B7898
:105AA000A3B194E80300284B83E803002748FFF7DD
:105AB000E1FF6368B3B12648FFF7DCFF2548FFF735
:105AC000D9FFFFF7A1FF2448FFF7D4FF234D2B7820
:105AD0003BB124681CB1204615F180F820B90023A1
:105AE0002B7070BD1E48E7E7204615F18FF800F2D5
:105AF000145084421B4E1FD2204615F187F83060A7
:105B0000204615F19DF804F5E0538342164E17D94F
:105B1000204615F195F83060144A00231360144AAA
:105B20001370FFF78FFE0028D9D015F119FBBDE8DF
:105B30007040012014F14CBFA4F214533360DFE72E
:105B40003360E9E7DD2B00200C2C002034301208F4
:105B5000393012084A301208E833130800220020B6
:105B600044301208082C0020002C0020042C0020B7
:105B7000DC2B0020284B1A7870B542B12748FFF77C
:105B800079FF274B5868003818BF012070BD254A9F
:105B9000107800283CD0244E244C33682448254DEE
:105BA00021781A1D2D1A0A44AA4205D3224A4FF021
:105BB000FF31D161202222702278D2B103F120017D
:105BC0008D4205D81F2A9FBF1B4AD3612022227015
:105BD00019492022184414F187FE326823781648A8
:105BE0001344002120223360217019F1A5FB15F127
:105BF000B7FA33689D4207D90F491048CB6120227C
:105C000014F172FE15F1ACFA002014F1E1FEB8E7D0
:105C100001221A70BAE700BFDD2B00209030120875
:105C20000C2C002000220020042C0020DC2B002063
:105C30008087150800002008DE2B0020E0FF1F08E9
:105C40002DE9F843DFF83C90DFF83C8007460E462C
:105C50000024B44201D1BDE8F88324B1230702D166
:105C60004846FFF707FF3D5D2B0905F00F0518F8C3
:105C70000300FFF7E9FE18F80500FFF7E5FE013421
:105C8000E7E700BFE8331308A0301208474B1B7842
:105C90002DE9F74F07460E4690465BB1022925D005
:105CA000042938D0012902D11146FFF7C9FF404825
:105CB000FFF7E0FE3F4B1B78002B4ED03E4A3F4B98
:105CC0000025A2EB030938E037F81430ADF80430B2
:105CD00024B1620702D12846FFF7CCFE022101A8B9
:105CE000FFF7AEFF0134A045EED1E0E7304D0024D0
:105CF000F9E757F82430019324B1A30702D12846CD
:105D0000FFF7B8FE04210DEB0100FFF799FF013406
:105D1000A045EED1CBE7264D0024F9E7FFF75AFD69
:105D2000022E1DD0042E2CD0012E06D12378795DB1
:105D30005A1C2270224AD1540135A8450DD0214B5E
:105D4000214C1B682278043313444B45E6D31C4B8B
:105D50004FF0FF32DA612023237003B0BDE8F08FEB
:105D60002378DFF85CA05A1C22703A780AF80320E6
:105D7000FFF730FD23785A1C227000220AF8032016
:105D8000DAE7DFF83CB04FF0000A22783B78511C8C
:105D900023FA0AF30AF1080A0BF802302170FFF720
:105DA00019FDBAF1200FF0D1C6E700BFDD2B0020AE
:105DB000E83313080022002000002008808715081F
:105DC000DE2B0020042C0020DC2B002070B50D4BB6
:105DD0001C68656D2B681E6899F0C6FB014630B1E2
:105DE000606D03681B6A9847411E18BF0121284651
:105DF000B0475CF091FE636DBDE8704093F89C1075
:105E00005BF07CBE182C002070B58EB02E220546AB
:105E10000E4602A80021019119F18EFA0C48322297
:105E200001A980F0EFFE044638B99DF904303BB972
:105E3000084A3146284699F03BFE20460EB070BD18
:105E4000054A01AB3146284699F032FEF5E700BF1E
:105E5000E48B0020BC30120831F9130813B501910E
:105E60002021044699F08CFB90B10A4BDFED0A7AB1
:105E700093ED007A019AB4EEE77AF1EE10FA05DAC2
:105E80002046064B202199F083FB002002B010BD74
:105E90000120FBE7B483002000000034D430120856
:105EA00037B5094B01910546D3F8500E03689B693D
:105EB00098470199044618B9044A284699F0F8FD14
:105EC000204603B030BD00BF209C0020E8301208FF
:105ED000F0B506468FB00F480F46A3F0E1FF002152
:105EE00004462E2202A8019119F126FA97F07AF8B9
:105EF00060B1322201A996F0C7F8054630B9064ACA
:105F000001AB3946304699F0D3FD2C4620460FB000
:105F1000F0BD00BFC86F0020FC30120830B585B05E
:105F200004460391402199F02BFB80B31949039A51
:105F3000D1E9DC31B3F90A5040F21450854214DC47
:105F4000B3F90E5040F2A3639D421ADDB1F90A5035
:105F5000854214DCB1F90E10994216DD1146204637
:105F600005B0BDE8304099F04FBC0B4B00930B4B94
:105F70002046402199F00CFB002005B030BD084BB5
:105F8000F4E7054B0093074BF2E7054BFAE70120D6
:105F9000F3E700BF208C0020B43012080C31120847
:105FA00070851208223112082DE9F041DFF8A48033
:105FB0000546D8F8500E03688EB05B6A0E469847C7
:105FC000F0B13146284699F03DFB044600B30BF092
:105FD00029FD002704462E22394602A8019719F10F
:105FE000ABF92046322301AA01210BF093F80446B5
:105FF00090B9144A01AB3146284699F059FD07E0A3
:10600000D8F8500E03689B6A98470028D9D101241C
:1060100020460EB0BDE8F08198F8683E33B10A4AD8
:106020003146284699F044FD3C46F1E7074803F025
:106030004BFB04460028EAD1054A3146284699F030
:1060400037FDE5E73831120841311208202C0020D5
:106050004E311208209C00202DE97043057F8046B8
:106060008946B5B9836823B90368BDE870435B6BA3
:106070001847174890F9803F002B0DDD00F5C660EA
:10608000A2F0D0FE054638B9124A4946404699F07A
:106090000FFD2846BDE87083494640469AF0D0FD82
:1060A000494606464046FFF713FF4946064040462C
:1060B000FFF7AAFEF5B2054049464046FFF7CEFE7F
:1060C000494605404046FFF7EBFE0540E1E700BFCB
:1060D000207C00206831120883680BB19AF080B9E7
:1060E0000120704738B505469AF088FE044630B95D
:1060F0000D4A137843F001031370204638BD012187
:106100000A489DF0DBFE0A4806F0E4FD0948A2F0CB
:106110001BFF2846FFF75AFE66F082FF064A06215B
:106120005FF03EFEE9E700BFBCB60020907600209D
:106130007CB40020508200208C31120838B505460E
:106140009AF00EFF044690B10A480B4BD0F8502E3F
:106150009A4203D000F5AC502EF05EFD2846FFF7C2
:1061600035FE66F05DFF054A06215FF019FE204608
:1061700038BD00BF209C002068B100209C3112086F
:1061800001487EF091BE00BFAC6100207047000066
:1061900070470000704700000020704700207047E3
:1061A00001207047002070477047000000207047B2
:1061B000C8207047012070470120704790F8883050
:1061C0008B4286BF00EB8100D0F88C000020704726
:1061D00090F888308B4286BF00EB8100D0F88C00AD
:1061E00000207047024BD3F8500E03681B68184715
:1061F000209C0020044BD3EDF47AFDEEE77A17EEF5
:10620000903A18B2704700BF206C0020014B93F801
:10621000EC087047205C0020034B93F978090038A4
:1062200018BF0120704700BF205C0020014B93F98C
:10623000EE087047205C0020034BD3F8500E034B50
:10624000C01A18BF01207047209C002010B0002009
:1062500010B50F4BD3F8504E23682046DB689847A3
:10626000A8B123682046DB6B9847B2EE047AC0EEF3
:10627000077A9FED087AF4EEC77AF1EE10FA58BF6C
:10628000F0EE477AFCEEE77A17EE903A98B210BD3E
:10629000209C002000FF7F477047000008B504489D
:1062A00008F064F900280CBF0A200B2008BD00BFCD
:1062B000202C002038B5154DD5F8500E0368DB6949
:1062C00098470028D5F8500E0368DB680CBF0124FE
:1062D0004124984708B144F008040D4BD5F8502EDE
:1062E00093F92037002B0B4B0ADD9A420AD044F079
:1062F0004004094899F038F920B144F0800401E0E5
:106300009A42F6D144F0010038BD00BF209C002025
:10631000207C002010B000201891002000B513EE62
:10632000103A8DB06222CDF8253013EE903ACDF8B8
:1063300029302123CDE900328DF82410192303AA36
:10634000C2218DED030ACDED040A8DED051ACDEDC8
:10635000061A8DED072ACDED082A60F095FD0DB0E7
:106360005DF804FB2DE9F0412DED028B1D4F9FEDF3
:106370001E8A002484B005462646F0EE488A07F5BA
:10638000607897F80036E1B28B4216D9404653F058
:106390007BFA80B1436836B1D3ED007AF4EEE78A38
:1063A000F1EE10FA07DDD3ED008A9B8808EE103A73
:1063B000B8EE488A01260134E3E76EB10823532280
:1063C000CDE90032287CCDED028A0DEB0302AD2130
:1063D0008DED038A60F058FD04B0BDEC028BBDE882
:1063E000F08100BF203C00200000000070B59F4DF0
:1063F000B5F8FC38D90704462BD505F5B95353ED4C
:10640000030ADFED9B7A13ED040AD3ED033A93ED13
:10641000043AD3ED012A93ED002A53ED011A93EDCE
:10642000021A007C60EEA70A20EE270A0521FFF77A
:1064300075FF207C60F0AAFC0646207C61F0E0FB42
:1064400000F121039E4204D2207CBDE870405FF041
:10645000C7BEB5F8FC389A071FD5864B207CD3ED14
:10646000003A93ED013A53ED022A13ED032A53ED5E
:10647000041A13ED011A53ED060A13ED070A04215D
:10648000FFF74CFF207C60F081FC0646207C61F029
:10649000B7FB00F121039E42D6D3B5F8FC385B0769
:1064A00025D5754BDFED727A53ED060A13ED070A19
:1064B000D3ED003A93ED013A53ED022A13ED032A8E
:1064C00053ED041A13ED011A207C60EEA70A20EEAA
:1064D000270A0221FFF722FF207C60F057FC0646C6
:1064E000207C61F08DFB00F121039E42ACD3B5F816
:1064F000FC381E0722D50021604891F08BFF072150
:10650000D0ED2A3A90ED2B3AD0ED282A90ED272AAB
:10651000D0ED261A90ED291AD0ED240A90ED230A29
:10652000207CFFF7FBFE207C60F030FC0646207CE0
:1065300061F066FB00F121039E4285D3B5F8FC387B
:10654000D80623D501214D4891F064FF0821D0EDF4
:106550002A3A90ED2B3AD0ED282A90ED272AD0ED5B
:10656000261A90ED291AD0ED240A90ED230A207CFA
:10657000FFF7D4FE207C60F009FC0646207C61F029
:106580003FFB00F121039E42FFF45EAFB5F8FC38FB
:10659000990620D53A4B207CD3ED003A93ED013A91
:1065A00053ED022A13ED032A53ED041A13ED011AD9
:1065B00053ED060A13ED070A0921FFF7AFFE207C11
:1065C00060F0E4FB0646207C61F01AFB00F1210339
:1065D0009E42FFF439AFB5F8FC385A0620D5294B56
:1065E000207CD3EDA63A93EDA73AD3EDA42A93ED00
:1065F000A32AD3EDA21A93EDA51AD3EDA00A93ED29
:106600009F0A0A21FFF78AFE207C60F0BFFB064646
:10661000207C61F0F5FA00F121039E42FFF414AFF3
:10662000B5F8FC381B0620D5164B207CD3EDB03ACC
:1066300093EDB13AD3EDAE2A93EDAD2AD3EDAC1A7A
:1066400093EDAF1AD3EDAA0A93EDA90A0B21FFF738
:1066500065FE207C60F09AFB0546207C61F0D0FA54
:1066600000F121039D42FFF4EFAE70BD205C0020DD
:10667000E02E654290750020FC740020D870002048
:1066800054760020208C002038B5C5780B46352D77
:10669000044628BF352535220021184618F14CFE46
:1066A0002A4604F10C01BDE8384018F11DBE000077
:1066B00037B504460D460648019211469EF0C8F8CB
:1066C000019A2946204603B0BDE8304066F016B86E
:1066D00068810020014802F0B5BD00BF202C0020D9
:1066E000014802F057BD00BF202C002030B58B8B35
:1066F000D12B85B00C4653D00BD8B22B1AD0C22B5D
:1067000021D0142B0DD0214605B0BDE8304067F0F4
:106710005FBED52B26D0B3F5967FF4D13049022247
:1067200001E030490222304807F058FDC0B904208A
:1067300005B030BD2D4B91ED010AD3F8500E036822
:10674000DB6C9847F2E7294B91ED000AD3F8505ED5
:10675000F7EE000A26F0B0FC0146284603F06AFD79
:106760000020E5E7214BD3F8500E03681B699847DA
:106770000028DCD0DFED1E7A94ED000AD4ED010A8A
:106780001C4820EE270AD4ED027AF5EEC07AF1EE2D
:1067900010FA02DD05F0F6FCE2E705F0C7FCDFE7E2
:1067A000D1ED017AFCEEE77ACDED027AD1ED007AF7
:1067B000FCEEE77ACDED037AD1ED027A9DF80C205C
:1067C000FDEEE77A17EE903A1BB2009391ED030AC3
:1067D0009DF808300146044806F064FDA8E700BFB4
:1067E00068B10020C8B30020202C0020209C00208D
:1067F0000000C842F0B000202DE9FF414FF0000832
:10680000CDE900280F4F9FED100A0C4606461546AD
:106810004FF47A73B1F90220D7F870138DED030AA3
:1068200066F0A4FACDE900589DED030AB4F90420FE
:10683000D7F874134FF47A73304666F097FA04B0C1
:10684000BDE8F081208C00200000FA440148A4F04B
:1068500095BC00BF88A6002008B561F061FE40F439
:10686000E67040F0010008BD13B50D4BD3F8504E53
:1068700023682046DB68984778B123682046DB6AA6
:10688000984726F087FCF6EE007A20EE270AFCEE09
:10689000C07ACDED017A9DF8040002B010BD00BFB2
:1068A000209C002013B54FF4F070CDE9002113F0C7
:1068B00095FB044628B1DDE9002167F021F8024B81
:1068C0002360204602B010BDC833120810B504463C
:1068D00013F08AFB204610BD0A4B93F8602E6AB96C
:1068E00093F8682E52B9D3F8500E074B984207D050
:1068F0003833984214BF04200320704705207047A6
:1069000002207047209C002010B0002070B5F7EEE8
:10691000000A91ED050A05460C46164626F0CCFB0A
:1069200038B10D48A2F01AFB08B1002070BD042058
:10693000FCE794ED050AF0EE000A26F0BDFB18B165
:106940000548A2F017FBEFE7324621462846BDE88E
:10695000704061F049BE00BF5082002013B5114B5A
:106960000446D3F8500E0368DB689847B8B1236833
:106970002046D3F8BC309847F1EE047A20EE270A7F
:10698000DFED097AB4EEE70AF1EE10FA58BFB0EE87
:10699000670AFCEEC07ACDED017A9DF8040002B0E2
:1069A00010BD00BF209C002000007F4307B50D48AC
:1069B000A2F038FA90B10C4BDFED0C7A93ED000A9F
:1069C00020EE270A26F0E6FBF6EE007A20EE270AF4
:1069D000FCEEC07ACDED017A9DF8040003B05DF8BD
:1069E00004FB00BF5082002098820020E02E654208
:1069F00007B50E48A2F016FAA8B10D4BD3ED007AF8
:106A0000B1EE047A67EE877A9FED0A7AF4EEC77AE0
:106A1000F1EE10FA58BFF0EE477AFCEEE77ACDEDD2
:106A2000017A9DF8040003B05DF804FB5082002059
:106A30000C83002000007F4310B594B0044603A8E7
:106A400012F000FF1A4BD3F8500E036803A91B6C19
:106A5000984750B3247CA9F0AFF9059BDDED047A8B
:106A60000893069B09930023F8EEE77A9FED117ACD
:106A70000B930C930D930E930F931093119312930A
:106A80004FF6F853ADF84C300023962267EE877A24
:106A90008DF84E303323CDE90032079007AA5721F5
:106AA0002046CDED0A7A60F0EFF914B010BD00BFBA
:106AB000209C00200AD7233CF0B52DED028B2C4CF6
:106AC0000546D4F8500E03688BB0DB689847002861
:106AD00049D0D4F8504E27482F7CDFED278A97F015
:106AE00081FD236820461B6B60EE288A9847BDEE27
:106AF000C00A204610EE103A1EB22368DB6A98479F
:106B0000BDEEC00A204610EE103A1DB22368DB6BC2
:106B10009847DFED1A7A2368B4EEE70AB0EE408AB0
:106B2000F1EE10FA5B6B58BFB0EE678A20469847CB
:106B3000BCEEC88A002303930593069318EE103A1F
:106B4000B722ADF824301A23CDE900323E2103AA42
:106B50003846CDED048A8DED070AADF82060ADF81A
:106B6000225060F091F90BB0BDEC028BF0BD00BF7C
:106B7000209C00209C720020E02E654200FF7F4791
:106B800070B52DED048B044688B029489FED298A05
:106B9000A3F0E4F8D8B349206AF096F89FED269A5E
:106BA0004A20C0EE098A6AF08FF8C0EE097A68EED2
:106BB000888A27EE888A267CA9F0FEF805462046BA
:106BC00066F034F9FDEEE88ABDEEC88A18EE903A18
:106BD00018EE102AADF80C300023CDE90533ADF8DE
:106BE0000E30ADF81020ADF812308DF81C30ED22CB
:106BF0001623CDE900328DF81D0002AA222130466D
:106C0000029560F041F908B0BDEC048B70BD1A200C
:106C10006AF05AF8DFED097AC0EE278A46206AF05A
:106C200053F89FED077A68EE888AC0EE077AC0E7CE
:106C3000C86F002000401C4600007A4400A08C452C
:106C40000000C8422DE9F04300F58047C7B097F82F
:106C5000A85404460E469DB304F50044702200215A
:106C600006A818F169FBD4F8D003FDF77BFC012DD1
:106C70008046894627D0D4F8D403FDF773FC044638
:106C80000D46A9F099F84FF47A725043002297F814
:106C9000A8342290239202A9802224A88DF81031D2
:106CA000CDE90289CDE9044518F11EFB7122892343
:106CB000CDE9003242F2283122AA304660F0E4F8F1
:106CC00047B0BDE8F08300240025DAE73429F7B5A2
:106CD00005460E4636D00AD8192926D024293CD09C
:106CE0003146284603B0BDE8F04066F0E1BA3829E5
:106CF000F6D183F017F90746002839D02621284617
:106D00005FF080FA0446B0B100230DF1060231466F
:106D10002846ADF8063063F0B5FD60B1BDF8062039
:106D2000297C384682F0E6FF05E016215FF06AFA1A
:106D3000044618B90024204603B0F0BD2846FFF7EA
:106D40001FFFF8E789215FF05DFA04460028F1D0C3
:106D5000297C0848FFF776FFEDE70C215FF052FA37
:106D600004460028E6D0297C0348A2F00FF9E2E7A8
:106D70000124E0E7202C00205082002030B52DEDCA
:106D8000028BCD7891B0272D28BF27250C462722CE
:106D9000002106A818F1D0FA2A462E4D04F10C0164
:106DA00006A818F1A1FAD5F8500E03681B69984798
:106DB00000284AD09DF83E4014F04001019144D192
:106DC000FFEE000A4FF44D70B7EE001A9DED0E0A6B
:106DD000DFED218A26F088FA0199D5F8500E8DED65
:106DE0000E0AB0EE408A03F011FA14F0040F68EEB8
:106DF000000A9FED1A8A1AD0079B0293089B0393FF
:106E0000099B049302A80A9BCDED010A05932AF081
:106E1000C3FE20EE280ADDED010A114820EE080A23
:106E200011B0BDEC028BBDE8304005F07FB99DED9F
:106E30000D0A0B4820EE280A20EE080A11B0BDEC1E
:106E4000028BBDE8304005F0BDB911B0BDEC028B3E
:106E500030BD00BF209C0020E02E65420000C842EB
:106E6000F0B0002038B504460D460548082107F06B
:106E700077FB294602462046BDE8384062F0C8BC90
:106E8000202C002030B50D4BD3F8500E036887B08E
:106E90001B690C46984778B102AD284612F0D2FC27
:106EA00006AB13E903008DE80300054895E80C00E4
:106EB00004F1080105F090FB07B030BD209C0020D4
:106EC000F0B000202DE9F04F2DED028BDFF868A225
:106ED0009FB0084610A9FFF7D7FBDAF8500E0368F9
:106EE0001B699847002800F0D58004AE304612F0A8
:106EF000A9FC8A4831460AF03DFA002800F0CA8011
:106F00009DF874C0BCF1010F04D0ACF10703022B53
:106F100000F2C0800AF556630FCBBDF8705008AC84
:106F200084E80F0015F0030305F0180905F0C00B05
:106F300005F4806805F4006702931ED1BCF1070FC9
:106F40009DED110ADDED120A14D0ACF1080CBCF174
:106F5000010F00F2A480724B93ED977AD3ED947AEF
:106F600060EEC76A67EEA00AE7EE806AE7EE000A05
:106F7000B0EE660A204612F08FFFB9F1000F40F024
:106F800093804946DAF8500E03F040F9DDED157AAA
:106F90009DED147A8DED030A27EEA70AA7EE070AE6
:106FA00026F0BEF89DED031A4FF46170F1EE410A30
:106FB00026F09AF9DDED140AB0EE408A9DED150A2F
:106FC00015F11EFFDFED577A9DF8743060EE277AD9
:106FD000083B9FED550A012B67EE807A0AD8504B8B
:106FE00093ED830AB8EEC00A30EE270A26F026F9A0
:106FF000F0EE407AB8F1000F19D19FED4A0ADDEDAD
:107000001A7A9DF8743067EE807A083B9FED460A45
:10701000012B67EE807A0AD8414B93ED830AB8EED4
:10702000C00A30EE270A26F009F9F0EE407A002F68
:107030003FD19FED3C0A9DED1B7A27EE007A9FED34
:107040003A0A27EE000AB9F1000F59D105F440655C
:10705000B5F5406F51D09FED357ADDED146AF4EE51
:10706000C76AF1EE10FAFFEE000AB7EE007A88BFA9
:10707000F0EE470A029BFBB90CAD284612F0E2FB8A
:10708000DDE90E018DE80300294895E80C00214652
:1070900005F0A2FA1FB0BDEC028BBDE8F08F96E8B8
:1070A0000F0084E80F0065E7DFED227AB0EE678A13
:1070B000A0E79FED200AC6E7BBF1000FEAD0B5F5C7
:1070C000406F07D168EE200A1948B0EE670A05F054
:1070D0002DF8DFE7B8F1000F07D0002FDAD168EE06
:1070E000200A134805F06EF8D4E7002FD2D0E9E764
:1070F000002FCFD1DFED0F0AF3E7F7EE000AB9E773
:10710000029B002BB8D0BBF1000FC3D0B8F1000F29
:10711000EED1002FBED0DFED070AD5E7B84A002038
:10712000204C0020E02E65420000C842000000B460
:10713000F0B0002000000000209C00202DE9F04F5E
:107140002DED028BDFF8C4B19BB008460CA9FFF708
:107150009BFADBF8500E03681B699847002800F083
:10716000C2809DF864200B2A00F2BD8040F669437E
:10717000D340DB0740F1B7800BF556630FCBBDF86A
:10718000604004AD14F0030985E80F0004F018080E
:1071900004F0C00A04F4806704F400660AD1DDE953
:1071A0000D0126F0DDFF002800F09D800D9B069369
:1071B0000E9B0793B8F1000F66D14146DBF8500EE5
:1071C00003F024F8DDED117A9DED107A8DED030AC0
:1071D00027EEA70AA7EE070A25F0A2FF9DED031AE6
:1071E0004FF47B70F1EE410A26F07EF8DDED100AD7
:1071F000B0EE408A9DED110A15F102FEDFED3E7AF8
:1072000060EE277A9FED3D0A67EE807A4FB99FEDD9
:107210003A0ADDED167A67EE807A9FED380A67EE5E
:10722000807AB6BB9FED340A9DED177A27EE007A7F
:107230009FED320A27EE000AB8F1000F42D104F4A4
:107240004064B4F5406F53D09FED2D7ADDED106AA8
:10725000F4EEC76AF1EE10FAFFEE000AB7EE007A1C
:1072600088BFF0EE470AB9F1000F2ED0BAF1000F37
:1072700039D0B4F5406F0FD168EE200A2148B0EE46
:10728000670A04F053FF2EE0DFED1F7AB0EE678A45
:10729000BCE79FED1D0ACFE737B126BB68EE200A99
:1072A000184804F08FFF1EE0EEB1E5E7BAF1000FD9
:1072B00019D01FB9BEB1DFED140ADFE79EB9DFEDCB
:1072C000120AEDE7B9F1000FF0D108AC204612F038
:1072D000B9FADDE90A018DE803000A4894E80C00D8
:1072E000294605F079F91BB0BDEC028BBDE8F08FA3
:1072F000F7EE000AB7E700BFE02E65420000C84283
:10730000000000B4F0B0002000000000209C00202D
:1073100030B48D7A4B7A43EA0523CD7A43EA0543AC
:10732000562B04460A4618D008D8522B0FD0542B9F
:1073300010D02046114630BC67F00ABA6D2B01D040
:10734000A62BF6D12046114630BCFFF78BBD30BCD2
:10735000FFF714BD30BCFFF7B5BD30BCFFF7EEBE84
:1073600070B5304D2DED028B0646D5F8500E91EDDF
:10737000018A03688AB01B690C46984750B9BDEE74
:10738000C88A18EE103ADB0704D402200AB0BDEC1C
:10739000028B70BDD4E9040126F0E2FE0028F4D08F
:1073A000236913B96369002BEFD002A812F04AFADF
:1073B00002AA2146304665F0B3FB0028E5D0D5F897
:1073C000500E03681B699847D0B194ED000ADFEDB9
:1073D000167AB4EEE70AF1EE10FA1ADA06AC204695
:1073E00012F030FA0AAB13E903008DE803000F48EE
:1073F00094E80C0002A905F0EFF840B10020C5E7C1
:107400000B4802220F2106F045FF0028DDD10420A1
:10741000BCE7D5F8500E0368DB6C98470028DDD137
:10742000F5E700BF209C002000000034F0B00020F1
:10743000202C002010B58A8BC02A10D0C22A12D06E
:10744000B22A1FD1114A91ED010AD2F8500E0268FA
:10745000D26C9047002814BF0020042010BDBDE866
:107460001040FFF77DBF094A91ED000AD2F8504E57
:10747000F7EE000A25F020FE0146204602F0DAFE73
:107480000020EBE7BDE8104065F042BC209C0020E6
:10749000014B93F8EA087047205C0020074B084A2C
:1074A000D3F8501E914201BFA3F5005393F92C0667
:1074B000B0FA80F0400918BF00207047209C0020DF
:1074C0007CB40020074B084AD3F8501E914207D1E4
:1074D000A3F5005393F92C06431E584258417047B8
:1074E00000207047209C00207CB4002038B58369C0
:1074F000354D43F4B84383610446D5F8500E036814
:107500001B6A984738B1D4E9072342F4406243F438
:107510004063E2612362D5F8500E0368DB68984748
:1075200038B1D4E9072342F4A04243F4A043E26116
:107530002362264B1D68ADB1284679F005FE002870
:1075400007DDA36943F48073A361E36943F48073A7
:10755000E361284679F0F8FD012803D0236A43F45B
:10756000807323624DF082FB98B190F905303BB1F6
:10757000A36943F04003A361E36943F04003E3617F
:10758000036833B10379DB0742BF236A43F040034A
:1075900023620F4B1868A8B190F8803293B1A369A9
:1075A00043F48073A361E36943F48073E3610021D2
:1075B00052F06AF930B153F0C9F818B1236A43F4B4
:1075C0008073236238BD00BF209C0020D8C70020F4
:1075D00078B700207FB500F58C467C3604463046EF
:1075E00097F000F8DFED1F7A20EE270ADFED1E7A14
:1075F00004F5F45020EE270A002301A91830019366
:107600008DED020A039304F5C74508F003F80AF06C
:1076100009FA0AF0CBF9083504F58E4210326821D8
:1076200028465AF089F8284606F5367267215AF03E
:1076300083F8204601F0A6FD30B104F591424032B6
:10764000652128465AF078F8084B93F9803F002BC3
:1076500006DD04F594421832642128465AF06CF88D
:1076600004B070BDE02E65420000C842207C0020BE
:107670002DE9F04F044693B0384806F077FF002814
:1076800068D004F59C591921484652F081F9002828
:1076900060D00EA812F0D6F804F5F4500EA91830F8
:1076A00008F0FEFC04F5C748002708F1080804F5B7
:1076B0008053FEB293F80036B34245D9314648466E
:1076C00052F0E2F8054600283CD0836893F9213057
:1076D000192B37D153F03AF8002833D06B681A6968
:1076E00004EB860303F5E043D3F8701E914229D0E2
:1076F000C3F8702E2B680DA95B6A2846984708B915
:1077000000230D93A8F060FB82460D988B46FCF792
:1077100029FFCDE90A016A681068FCF723FF119A76
:107720000F4B0692109A01930E4B0093CDE908017E
:10773000CDE90462CDE902AB0B4B0C4A0C49404643
:107740005AF01AFE0137B2E704F5F64045214C30F5
:1077500066F01AFD13B0BDE8F08F00BF202C0020AA
:10776000233512082A351208F8341208FF3412089B
:107770001E351208F0B58BB0154606460F4624227A
:10778000002101A81C4617F1D7FDA3238DF8043072
:1077900095238DF8053003238DF80630A8F014FBEF
:1077A0002B6804936B680593AB6806932368CDF848
:1077B0000700079306F5C7406368CDF80B100893E0
:1077C0002422A3688DF80F7001A9083009935AF09C
:1077D000B1F90BB0F0BD000030B589B01D220446F0
:1077E0000021684617F1A8FDA3238DF800309523EA
:1077F0008DF8013001238DF80230A8F0E5FA04F588
:10780000E045CDF80300D5F8500ECDF80710036819
:10781000DB6B984710EE103AD5F8500ECDF80B30D0
:107820000368DB6A984710EE103AD5F8500ECDF891
:107830000F3003681B6B984710EE103ACDF81330E9
:1078400004F50053D5F8500ED3F80C32ADF81730CC
:1078500003685B6B984704F5C74010EE103A1D2291
:1078600069460830CDF819305AF064F909B030BDD6
:107870002DE9F04F2DED068B05462F4890F9803FFE
:10788000002B91B050DD00F5C660A1F0CBFA05F5F4
:10789000C7460836044600284BD005F5A04303F53B
:1078A000C66292ED138ADFED257A93F8104728EE31
:1078B000278AA8F089FA05F580498046D9F8EC03B3
:1078C0000F46FCF74FFE8246D9F8F0038B46FCF7D3
:1078D00049FE41EC190BD9F8F403FCF743FE41ECE7
:1078E0001A0B05F5BF4005F037FF10EE100AFCF744
:1078F00039FECDE90E0118EE100A8DED0CAB8DEDC1
:107900000A9BCDE908ABFCF72DFE0D4B01930D4B07
:107910000093CDE90601CDE902870B4B0B4A0C49D8
:10792000049430465AF028FD11B0BDEC068BBDE83A
:10793000F08F9FED088ABCE7207C0020E02E654296
:10794000743512087C351208343512083C3512089B
:107950006F3512085241C07F70B52DED028B00F5D6
:107960008C458AB07C350446304B009369462846E6
:1079700096F028FF2122002101A817F1DDFCA323A6
:107980008DF8043095238DF8053002238DF80630EC
:10799000A8F01AFA04F5C043CDF80B10D3F87033F1
:1079A000CDF80700B3F90830ADF80F3004F5804387
:1079B0009FED1F8AD3F8CC33CDF8113004F5E043A6
:1079C000D3F8500E03689B6B984710EE103A284688
:1079D000CDF81530009BCDF8193096F0F3FC20EE71
:1079E000080A04F5F45510EE103A18352846CDF87B
:1079F0001D3008F055F90646284608F055F900F103
:107A0000180130462AF04EFC20EE080A04F5C74063
:107A100010EE103A212201A90830CDF821305AF099
:107A200089F80AB0BDEC028B70BD00BF5241C07F27
:107A3000E02E654270B500F5805200F5386392F88B
:107A400004210C2101FB023300F58C458AB07C3502
:107A50000446D3F8C0611D4B019301A9284696F056
:107A600043FE1D22002102A817F166FCA3238DF816
:107A7000083095238DF80930A8F0A6F904F5C04325
:107A8000CDF80B00D3F87433CDF80F10B3F90830EC
:107A9000ADF8133004F580432846D3F8D033CDF841
:107AA000153096F0C7FF10EE103A04F5C740CDF838
:107AB00019301D22019BCDF81D3002A90830CDF8E8
:107AC00021605AF037F80AB070BD00BF5241C07F44
:107AD00013B5044600F5C740083004F58054019002
:107AE00059F0E4F9019859F079FA94F9303601988F
:107AF00023B102B0BDE8104059F09ABB02B010BDEE
:107B000010B500F5E0430446D3F8500E03681B6837
:107B1000984704F54053C1B204F5C74093F89C263A
:107B200008305AF0B5F904F5F45018300AF082F92B
:107B300004F54470BDE8104017F040BF00F5C740A1
:107B40000249A52208305AF0CDBC00BFA85B12083C
:107B50002DE9F341044688F0B1F904F15C0067F0C7
:107B6000D9FB4C4E4C4BE365E825601967F0F8FDF6
:107B700066512C35B5F56A7FF7D104F56A7069F066
:107B800025FC04F6983504F6CC109AF0ABFA2A4698
:107B9000424904F68820A1F0E5FF04F614310846B6
:107BA00004F65C56019190F00BFA0199284690F08A
:107BB00059FB304696F028FB04F58A50002110301E
:107BC0009BF086FF04F5905004F580570C3079F057
:107BD00007F9334BC7F8E43B04F5DF5008307FF07A
:107BE0008DFA04F5E15008309CF066FD04F5E6508E
:107BF0007CF022FF04F5E6501C307CF0DDFA04F541
:107C0000E750183051F02AFB264BC7F8F83C04F532
:107C1000E8501030A1F0BEF804F5F35504F5F0502B
:107C2000103504F524580430A8F0E4F842463146F3
:107C3000284699F0E7F91C4BC7F8703E05F5F5604A
:107C400011F000FE05F5F76011F0FCFD05F5F96097
:107C500011F0F8FD05F5FB6011F0F4FD04F5195085
:107C6000203005F009FD04F51A5024307EF09EFF07
:107C700004F52050043094F037F93146404697F02F
:107C800091F82046094950F011FA204602B0BDE8AB
:107C9000F08100BF4C7C1208607C1208584A00201A
:107CA000BCB40020F8311208B0FB1308B0721208FF
:107CB000F0B500F563552035B5B00446284650F0C0
:107CC000C3FA6E4E28B104F54053B3F9E038102BD7
:107CD00015D037686A49386C03681B68984769F0A3
:107CE00085FD4EF0FBFD102314A92846ADF8503059
:107CF00051F0FEF9386C634903681B6898471023FC
:107D000014A92846ADF8503051F0CEF9A8F048F843
:107D1000054650F077F85C48002224214FF002FE1F
:107D200050F0B8FB594A13881A2143F0020300208F
:107D3000138069F0D5FA0220462169F0D1FA204675
:107D400001F020FA40B104F5AA401E2314A94430E2
:107D50008DF8503051F05CF969F00EF833681E6C04
:107D600033681F68A8F01CF8421B494D494930464A
:107D7000B84795E80F0004AE86E80F0002A9304628
:107D80004FF0F2FCF0B105F1100314AA1835186891
:107D90005968164603C60833AB423246F7D1186815
:107DA0001B79306033719DF808300C2B0AD834AA47
:107DB0001344079813F8803C00EE103AB8EE400ADE
:107DC00050F0F6FC344D95E80F0008AE103586E80B
:107DD0000F0095E80F000CAF87E80F0003A93046AD
:107DE0004FF0C2FC0146002844D00021B7EE000A43
:107DF00030464FF005FD2949802214A817F174FA86
:107E00000821002214A84FF08DFD2548B1EE0C0A80
:107E100050F0CEFC04F5645010A920304FF03EFB2A
:107E200030B3002540F6E57304F54251CDE9003545
:107E30001C4ABDF84000252330314FF087FD7223E6
:107E400004F54851184ABDF8400000931831322318
:107E500001954FF07BFD40F6D17304F55651009328
:107E6000124ABDF84000019511230C314FF06EFD10
:107E700035B0F0BDB7EE000A3846BAE7182C00203E
:107E80002070120844701208707012084CB700205D
:107E9000EC2B12084B7012080C2C12082C2C120818
:107EA0005F7012082493120884F0130824C013088A
:107EB0000069C0F3401070470F299DBF2C2303FBBE
:107EC00001008C3000207047014B93F91409704772
:107ED000205C0020034B93F8580EC04300F00100D3
:107EE000704700BF209C0020014BD3F870037047FF
:107EF000208C002008B53AB1022A10D1BDE8084014
:107F00000748012206F06AB9064AD2F8502E8A4282
:107F100005D167F0A1FBBDE8084067F00DBB08BDC7
:107F2000202C0020209C002030B589B01C2200218C
:107F30000F4C03AD01A817F1FFF9284611F082FCA0
:107F400094E80F0085E80F00102301A904F50260F2
:107F5000ADF806302BF0AEF940B1064BB4F850281E
:107F60001B680549186C03681B68984709B030BD49
:107F700080A90020182C00206C7A120801290A46DA
:107F800003D0022900D019B90122024805F050BCE3
:107F9000704700BFA08B002000290DDB074890F838
:107FA0009824CBB29A4207D3D0F894340122595C7A
:107FB000A0F5C04006F06EB9704700BF208C0020CD
:107FC0004A2910B40B4604462BD021DC102910DCC2
:107FD000032917DD01208840144910E0A3F1C900EE
:107FE0000121814040F2434001420BD05DF8044B37
:107FF00070472A39152905D8012088400C490140CD
:108000000029F3D1204619465DF8044B68F0AABA5E
:10801000D329F7DCC829E1DC6129E7D09B29F1D11C
:10802000E4E75DF8044B1146FFF7A8BF900001009C
:1080300001FF22000B464A2BF7B5064611465FDCCE
:10804000292B0FDC072B70D056DC002B5DD0042BC6
:1080500000F0AE800A463046194603B0BDE8F04055
:1080600067F08EBFA3F12A02202AF3D801A050F8AE
:1080700022F000BFB5810008558000085580000837
:10808000558000085580000855800008558000087C
:108090005580000887810008938100089F810008AF
:1080A000A5810008AB810008BB810008C1810008E0
:1080B000C781000855800008CD8100085580000860
:1080C0005580000855800008D381000855800008BD
:1080D000558000085580000855800008558000082C
:1080E000558000085580000855800008558000081C
:1080F00055800008E1810008102BABD14E494BE0C0
:108100009B2B71D003DC612BA4D101240AE0A3F1E5
:10811000C9050A2D9ED8012404FA05F540F2434210
:10812000154297D0204603B0F0BD022AEDD1434D51
:10813000414FD5F8503EBB42E7D0A5F6083097F046
:1081400013FA044678B905F5AC502AF087FF64F0BD
:1081500067FF3B4A05215DF023FE2146A5F5E0407F
:1081600001F070F8D1E7D5F8503EBB42CDD005F50F
:108170008055B5F9B03513B93046FFF7D5FE304616
:10818000FFF7D2FECEE70229BFD12E4801F0A8F9B1
:10819000BBE70A462C493046FFF7ACFEB5E70A4676
:1081A0002A49F8E70A462A49F5E70A462949F2E743
:1081B0002949F1E70A462949EDE70A462849EAE74D
:1081C0000A462849E7E70A462749E4E70A462749D5
:1081D000E1E71A4BD3F8500E03681B6D984794E7FC
:1081E0003046FFF7CBFE90E721480192A1F0B6FDA3
:1081F00000288AD11F4897F0B7F90446002884D098
:108200000E4BD3F8502E03F5B9539A423FF47DAF8D
:10821000A3F53E739A423FF478AF019902297FF4A7
:1082200074AF1A2068F0C4FE64F0FAFE124A019995
:108230005DF0B6FD76E700BF68B10020209C00200D
:10824000807A1208202C002080B00020B8B00020D6
:108250008CB3002048B00020C8B3002004B4002034
:10826000F0B0002040B3002040B400207CB40020D7
:10827000C86F002018910020997A120800207047DA
:108280000020704700207047002070470020704792
:1082900000207047704700007047000000207047C2
:1082A0000020704700207047002070470020704772
:1082B0000020704700207047002070470020704762
:1082C00000207047002070470020704708B5036801
:1082D000DB68984780F00100C0B208BD01207047FC
:1082E000012070479FED010A704700BF00000000A9
:1082F0000020704701207047002070477047000041
:108300001020704700487047787C120870470000C2
:108310000020704701207047002070470020704700
:1083200008B500F5E040D0F8500E03681B68984788
:10833000C0B208BD00F5E04300F50540D3F8503E5B
:1083400048301B1A584258417047000003480860E3
:108350002921117008221A60704700BF2481120879
:1083600000F5E040D0F8500E0368DB6C18470000C1
:10837000A1F10A03584258417047000003685B6846
:108380001847000001F05EB900F0B0BF71F0F8B816
:1083900056F0B4BE22F0E0B959F020BD05F09ABD08
:1083A0007CF0A8BB49F00EBE04F008BD01F06CBA29
:1083B00001F0F8BB0DF0DEBC6AF0FAB869F002BD5E
:1083C00004F0E6BF7BF046BF72F03EBD0CF05CBE31
:1083D00067F076B866F09ABD64F0B4BA05F076BD81
:1083E00005F092BDA0F0ACBE78F084BE9AF082B8E1
:1083F0000BF050BD18F094BD00F064BE4CF022BBF1
:1084000005F026BE05F014B901F09ABB02F078BF62
:1084100003F0C2B802F0C2BC37B500F5E043054630
:10842000D3F8500E8DED010A0368CDED000A1B69EB
:108430009847044640B105F50440DDED000A9DED86
:10844000010AD03003F0EAFE204603B030BD000040
:1084500030B52DED028B00F5E0430546D3F8500E04
:10846000036883B01B69CDED010AB0EE408A9847DE
:10847000044650B19FED070ADDED010A05F5044001
:1084800028EE000AD03003F09DFE204603B0BDEC7C
:10849000028B30BD0000C842013910B514460729CF
:1084A00054D8DFE801F00413273341474D1D00F590
:1084B000804393EDF80AEA20B7EE001AFFEE000AB7
:1084C00024F012FF012084ED000A10BD00F5804366
:1084D00093EDF90AED20B7EE001AFFEE000AEFE780
:1084E00000F5804393EDFA0AF020B7EE001AFFEE94
:1084F000000AE5E700F5804090EDF40AF320DFED97
:10850000147AB7EE001AFFEE000A0AE000F5804088
:10851000DFED107A90EDF30AB7EE001AF620FFEEC9
:10852000000A80EE270ACBE700F5804090EDF70ABD
:10853000F920E4E700F5804090EDFB0AFC20DEE73F
:1085400000F5804090EDFC0AFF20D8E70020BCE752
:108550000000C84200A08C4510B400F5054400F5A9
:10856000E0404834D0F8500EA04203D15DF8044BEF
:1085700002F0CCBA00205DF8044B704700F50543CB
:1085800000F5E0404833D0F8500E984201D102F097
:10859000DBBA704770B50A4B0446D3F8500E036837
:1085A000DB680E469847054640B104F5E044D4F830
:1085B000500E0368DB6B984786ED000A284670BDB5
:1085C000209C002070B50A4B0446D3F8500E036877
:1085D000DB680E469847054640B104F5E044D4F800
:1085E000500E0368DB6A984786ED000A284670BD86
:1085F000209C002070B50A4B0446D3F8500E036847
:10860000DB680E469847054640B104F5E044D4F8CF
:10861000500E03685B6B984786ED000A284670BDD4
:10862000209C002070B500F5E0430446D3F8500EBE
:10863000036886B01B690D46984780B102AE30468C
:1086400011F000F906AB13E903008DE8030004F50F
:10865000044096E80C002946D03003F0BDFF06B078
:1086600070BD000070B52DED028B00F5E0430646AD
:10867000D3F8500E03681B690C469847054600B3B3
:1086800094ED010AD4ED007A20EE000AA7EEA70AC5
:1086900024F046FDD4ED000AB0EE408A94ED010AC4
:1086A00014F1AEFBDFED097A60EE277A9FED080A40
:1086B00006F5044027EE800AF0EE480AD03003F0B9
:1086C00035FDBDEC028B284670BD00BFE02E654233
:1086D0000000C842664B70B5044640F8043B71F098
:1086E0006FF804F110000DF0A1F804F1A8000FF0EC
:1086F000A9FB04F5187056F09FFA04F5447016F0C3
:1087000037FB04F5D3600BF05DF904F63C0014F080
:1087100011F904F5386021F0E3FD04F595501030AF
:1087200070F0FCFD04F59C5051F058F804F5B15080
:10873000103069F0D9FD04F5B3500C300EF01EFD79
:1087400004F5B950083089F0E1FA04F5ED5018301D
:1087500092F03AFB04F5EE50143056F01BFE04F58F
:10876000F150083072F016FA04F580530025414AA2
:1087700083F8385E04F5F25004F5F15318330830ED
:10878000136049F0B3FA04F5F4502946183007F0A5
:10879000B1F804F51550383086F022FA04F5165079
:1087A000043075F02BFD04F51650303086F0FEFED7
:1087B00004F536503C308DF039FB04F53B50143055
:1087C0008CF0E0FB04F53B503C308FF055FF04F596
:1087D0003D50383091F0B0FC04F53F501C3092F021
:1087E000DBF804F54050243085F03EF904F54250A2
:1087F000303005F0C5FE04F54850183094F01AFDED
:1088000004F555501C492C304FF050FC04F55650DF
:10881000043024F017F804F556500C307CF006FABA
:1088200004F55950043093F051FB04F5405304F51E
:10883000625683F89C5604F55A552C352C3628463A
:1088400010355CF033FDAE42F9D10C4D04F56250A9
:10885000383094F005FC2B6813B10948A7F07AFA78
:10886000204608494FF022FC2C60204670BD00BF16
:10887000746D130860C7002040C81308B8B7002003
:10888000807C12084C6C130870B50446254601F034
:108890002BFB1F4B45F8383B1E4B2465C4E91534B0
:1088A0001D4BC4E917341D4B636604F1780010F0CA
:1088B000C9FF04F1940010F0C5FF04F1B00010F0FE
:1088C000C1FF4FF6FF76164BC4F8C430A4F8C86059
:1088D00004F1CC0010F0B6FF124B13491D6028467E
:1088E0004FF0E4FBA4F87060A4F88C6004F59E706F
:1088F00010F0A8FF04F5C67010F0A4FF04F5D470C2
:1089000010F0A0FF04F5E27010F09CFF204670BD4F
:10891000108912080D8400081184000815840008CD
:108920000000FFFF64B600204C041308F0B50446B5
:1089300085B0FFF7CFFE934B2360934B934D1D60A3
:1089400004F563521C320023142698B206FB005132
:108950000133097C0029F8D18D4B18808D4B18808C
:108960008D4B196811B18D48A7F0F4F904F56450E6
:1089700020301A60FFF7ECF804F5C640683099F033
:1089800097FB04F5635104F5C7402431083058F0D3
:10899000E9FF04F5C04504F564531533C5F8943474
:1089A00004F5C940062385F898341C3069F03EF878
:1089B00004F5C940783096F09BFD794BC5F8F83442
:1089C00004F5CA4058304BF0E1FF04F5CB401830B5
:1089D0009CF0E6F904F5F440683004F5E045A2F0B7
:1089E000CBF904F5F6466F4BC5F84C3B04F5F74759
:1089F000703654373046143661F0C8FBBE42F9D1A8
:108A00000723C5F8F83C0023A5F8FC3C4FF4CB70D5
:108A100011F0EEFAC5F8F40C04F5FA40A4F05EF893
:108A200004F5FA404430A4F059F85F4A13681BB9C2
:108A300004F5F6434C3313605C4BC5F84C3B04F52E
:108A4000FA40603010F0FEFE04F5FA404FF4805119
:108A500070300DF027F804F5FB40583069F092FDB6
:108A600004F50346524B0393F036524BC5F8506E53
:108A70000294009304F5FD4004AB13E90C004FF49D
:108A800000711C300BF0ACFE04F50045304601F0DF
:108A90002BFA494BC5F8F03304F50440283001F0B7
:108AA00023FA464BC5F8283404F50440603001F041
:108AB0001BFA434BC5F8603404F50440983001F0CC
:108AC00013FA404BC5F8983404F50440D03001F057
:108AD0000BFA3D4BC5F8D03404F50540383010F0A2
:108AE000B1FE04F5074604F5054020364830FFF78F
:108AF000CBFE304601F0F8F9344BC5F8203706F1CB
:108B0000380010F09FFE04F507406C3001F0ECF9DE
:108B10002F4BC5F86C3704F50740A83001F0E4F995
:108B20002C4BC5F8A83704F50740E43001F0DCF918
:108B3000294BC5F8E43704F50840203001F0D4F99A
:108B4000264BC5F8203804F508405C3001F0CCF91C
:108B5000234BC5F85C3804F5084004F50945043595
:108B60009C3002F0AFFFB0EE000A28465CF0A6FB96
:108B7000B0EE000A05F110005CF0A0FB204605B045
:108B8000F0BD00BF688412086CB700208075120821
:108B900068B7002040B7002014B70020947C12086A
:108BA000B8311208BC8E130884C10020C0341208EA
:108BB0000984000858841208B87C1208208C120816
:108BC000008D1208D0861208B88B1208908C1208FB
:108BD000E08E12087C8D1208788E1208088B12081D
:108BE000EC8D120810B500F5645400F5874028306C
:108BF000A2F086F820340146204687F03DFA204650
:108C0000BDE8104087F0D8B9FFF7ECBF7FB5044648
:108C100000F5C940783004F5F455FDF7D7F818355C
:108C2000204605F029FA0021284607F005FF04F543
:108C3000FA416031284607F033FA04F5E04604F5BE
:108C4000005386F86C0E93F8D41211F0010102D192
:108C5000204600F0F7FA002301A928460193029369
:108C6000039307F0E7FA28B301A827F077FF06F689
:108C7000986686ED000A0121204605F071FC28B1B6
:108C80002046FEF7A7FC2046FEF7F2FD8021204695
:108C900005F066FC18B123F065FB21F0E5F94FF40F
:108CA0008011204605F05CFC10B1284606F0A4FDBA
:108CB00004B070BD94F8F035B02202FB034394F881
:108CC000962693F8D133002AD5D1022BD3D9284642
:108CD00007F058FFCBE70000FFF798BF70B500F52D
:108CE0004053044693F90C3933B300F5E043D3F80D
:108CF000F05C0DB3A7F060F804F5C04393EDD90A1A
:108D0000DFED0E7A9FED0E1ADFED0E0A451B20EE09
:108D1000270A40F26B1024F0E7FAFCEEC07A2046F6
:108D200017EE903A9D42084ABDE8704034BF0023D8
:108D30000123022100F02ABE70BD00BF00007A446A
:108D40000000804F00000000A36E1208FFF7C6BFAE
:108D500070B50221044605F003FC50B10121204604
:108D600005F0FEFB28B92046FEF734FC2046FEF74E
:108D70007FFD1021204605F0F3FB38B12046FEF7B9
:108D800059FE04F585406C3099F026FC20212046E0
:108D900005F0E6FBE8B104F5C44520462035FEF7B2
:108DA0001BFD284696F044F898B1284604F5C745BF
:108DB000083504F5C44696F037F906F17C026921BE
:108DC000284658F0B9FC06F1A4026A21284658F05A
:108DD000B3FC4FF48061204605F0C2FB30B104F5CE
:108DE00096402C30BDE8704078F092BA70BD00001B
:108DF000FFF7AEBF10B54FF40051044605F0B0FBCD
:108E000010B12046FEF7A8FD4FF48041204605F042
:108E1000A7FB38B12046FEF75BFE04F588403430EE
:108E20008FF0CAF98021204605F09AFB50B123F05B
:108E300099FA21F03DF904F5B9500830BDE8104029
:108E400088F07EB910BD0000FFF7D4BF73B50446AB
:108E500003682C4DD3F8A03004F5C94678369847FE
:108E600068F000F800213046FDF7F6F8A8713046AA
:108E7000254E0123EB7196F077FB336828715B6D0B
:108E8000224A93F89C306B7104F54055B5F8EA1806
:108E9000117013B9204600F0FBF933685B6D93F84D
:108EA0009C6036B195F89E361BB9A6F085FFC5F8D3
:108EB000A00685F89E6604F5944604F5874596ED70
:108EC0001A0A283528468DED010AA0F047FF014611
:108ED00004F5AF409DED010A103098F0CDF996ED04
:108EE0001A0A28468DED010AA0F038FF9DED010A0F
:108EF000014604F5C4406836203002B0BDE8704039
:108F000095F0D6BF9DB60020182C0020A425002087
:108F1000FFF79CBF10B5094B1B78044623B100F541
:108F20008C407C3095F02EFF04F5E044D4F8500ED0
:108F30000368BDE810409B68184700BFC4C100200B
:108F4000FFF7E8BF38B5054B1C6823680A461D6863
:108F5000034B01462046A847002038BD182C0020AE
:108F6000202C002038B5037904463BB905682DB1A3
:108F7000284620F0D5F9284611F036F8204638BDAD
:108F8000354B70B50360044600F554500C3010F0BA
:108F900047FB04F5005393F8D02F42B9D3F8CC5FC8
:108FA0002DB1284620F0BCF9284611F01DF804F533
:108FB000ED50183091F01CFF04F5C9501C30FFF73C
:108FC000D1FF04F5C9501430FFF7CCFF04F5C950A8
:108FD0000C30FFF7C7FF04F5B150103069F09CF971
:108FE00004F5995504F5965614351436B54204D057
:108FF000183D28461FF09EFFF8E7184BC4F8803B49
:1090000004F60C7504F6DC66AE4204D0083D284632
:10901000FFF7A8FFF8E704F54B605BF0DDFE04F610
:1090200094405BF0D9FE04F604405BF0D5FE04F6F4
:10903000E8305BF0D1FE0A4BC4F8EC3094F8D43140
:1090400043B9D4F8D0512DB1284620F069F928460B
:1090500010F0CAFF204670BD746D1308E8F31208C3
:1090600034AC120810B5094B036000F5E043044628
:10907000D3F8F40C064AC3F84C2B08B110F0BAFF31
:109080002046FFF77DFF204610BD00BF6884120810
:10909000BC8E130810B5A3F0D7FF064C064B186022
:1090A0002046FFF743FC2046044A0549BDE810402E
:1090B00013F1CEBA202C0020182C0020D023012040
:1090C0006590000813B500F50043044693F8ED33AE
:1090D00023B102B0BDE8104004F018B800F58C4090
:1090E00001A97C3095F000FB08B90023019304F539
:1090F000C940783096F038FA014604F58740D4ED3F
:10910000C20A9DED010A2830A1F0AAFD02B010BDEF
:1091100010B500F5A043D1ED007A9FED177A90EDE0
:10912000C21A03F5A86203F21C7393ED000AD2ED94
:10913000000A00F5804367EEC77A9FED107A93F836
:10914000A83367EEA07A20EE070A13F00C0F00F5A3
:109150008C400C46A7EE870A14BF0121002160EE67
:10916000870A7C3095F05CF9DFED057A20EE270A5E
:1091700084ED000A10BD00BF0AD7233C35FA8E3CAF
:109180000000C84200F5804090F9280BC31E5842E9
:1091900058417047F0B52DED028B044600F5F450B0
:1091A00087B018300D46174609F012FF0646002812
:1091B0003DD03FB104F5005292F8D43243F002039F
:1091C00082F8D43204F5054080302AF093F8D5EDCA
:1091D000017A9FED197A9FED198AF8EEE77A04F586
:1091E000F64467EE877A4C3417EE900AFBF7BAF92B
:1091F000D5ED037AF8EEE77ACDE9040167EE887AD7
:1092000017EE900AFBF7AEF9D5ED027AF8EEE77AA1
:10921000CDE9020167EE887A17EE900AFBF7A2F912
:10922000074ACDE90001062120465CF0B9FD304631
:1092300007B0BDEC028BF0BD0AD7233C95BFD633F7
:10924000108512087FB5054605F5F45468461834B4
:109250000E4610F0F7FA204606F0E4FF18B9002495
:10926000204604B070BD6946204606F019FF00286C
:10927000F5D0324669462846FFF78CFF04460028A1
:10928000EDD005F59440012170309AF017FEE7E724
:109290007FB500F50056054696F8D4329A0716D4E5
:1092A00005F5F4546846183410F0CCFA69462046A7
:1092B00006F0F6FE58B105F5D3600AF0E9FC96F821
:1092C000D432DB0705D46946204609F081FE04B09C
:1092D00070BD04F22C41684610F06EFDF6EE007A87
:1092E000B4EEE70AF1EE10FAEDD5F0E72DE9F04122
:1092F00000F5C94678362DED028B0446304696F0CF
:1093000033F9054630B9524B00221A80BDEC028B6E
:10931000BDE8F08104F5405797F90D39002BF2D0E4
:1093200004F5E043D3F8500E0368DB68984720B992
:109330002046FFF727FF0028E5D004F5A04393F966
:109340004435002B40D007EE903A9FED427AF8EE7C
:10935000E77A04F5005367EE877A93ED7F7AB0EEF3
:10936000C77AB4EEE77AF1EE10FA0ADC93ED7E7A72
:10937000B0EEC77AB4EEE77AF1EE10FACCBF012571
:1093800000252046FFF7FEFE00B3002DBED059F0A9
:10939000C3FB0C21012259F071F92046FFF7F2FEC0
:1093A00004F5F6434C330146002840D02A4A0021F8
:1093B00018465CF0F5FCBDEC028B30460122BDE89E
:1093C000F0410C21FCF7BABE1D46DAE73DBB04F5BF
:1093D000F45808F11808404607F0D4FB9FED1F8AA7
:1093E000B4EEC80AF1EE10FA8DDA404606F058FCE9
:1093F000D0ED027AF0EEE77AF4EEC87AF1EE10FAE8
:1094000081DA04F58043D3EDF47AB1EE047AF0EE1C
:10941000E77AF4EEC77AF1EE10FA3FF574AF0C4A32
:10942000138801339BB2132B1380AED9AFE71846D4
:109430000B4A5CF0B5FC04F50441132228312046A8
:1094400004F0CCFE97F90D39022B7FF45FAFB2E741
:1094500050B5002035FA8E3C308512080AD7A33D5E
:10946000418512082DE9F04D88B0044659F054FBAF
:109470000546A6F0A9FC04F500430746D3F82439B5
:1094800004F50940B3F1000800F1040018BF4FF0E3
:1094900001080E465BF0BAFF0068FBF763F88246EE
:1094A00004F5094014308B465BF0B0FF0068FBF711
:1094B00059F8CDE904ABCDE90601CDE90076054BBD
:1094C000054A0649CDF80880284658F065FF08B0DF
:1094D000BDE8F08D588512085D851208798512085F
:1094E00073B5044600F5C940783096F03DF804F5B0
:1094F000F6454C3504F5004648B90023164AC6F82F
:109500002439022128465CF04BFC02B070BD04F502
:109510008C4001A97C3095F0E7F80028EDD004F5E7
:1095200009409DED010A04305BF072FF04F58043B1
:1095300004F5094093EDF40A14305BF069FFA6F0DE
:109540003BFC0023C6F82409C6F828392046FFF75B
:1095500089FF024AD5E700BF808512089C85120862
:1095600070B52DED028B00F5004686B0D6F8243993
:109570000446002B53D000F5094014305BF046FF41
:1095800090ED008A04F5094004305BF03FFFB2EE35
:10959000047AD0ED007AB4EEC78A04F5F645F1EE10
:1095A00010FACDED057A05F14C053CDB9FED217AF3
:1095B000B4EEC78AF1EE10FA35D89FED1F7AF4EEBB
:1095C000C77AF1EE10FA2EDBFDEEC87A04F563508F
:1095D00017EE903A0DF113013E308DF813304FF035
:1095E00035FD04F5635005A930304FF0E5FC04F576
:1095F000405202F50F6292F90E3010680393FAF7A9
:10960000B1FF039B0D4ACDE90001022128465CF021
:10961000C7FB0023C6F824392046FFF723FF06B016
:10962000BDEC028B70BD064A022128465CF0B8FBF7
:10963000EFE700BF0000C84200000034B485120804
:10964000D785120837B500F500450446D5F824390A
:10965000A3B300F58C4001A97C3095F045F868B3C0
:1096600004F50940DFED160A9DED010A04305BF0B8
:109670004BFE04F5804304F5094093EDF40ADFED59
:10968000100A14305BF040FED5F828390D4A5343D8
:10969000B3F1333F02D82046FFF7E4FED5F828396E
:1096A0000133C5F82839A6F087FBD5F82439C01A4C
:1096B000B0F5FA6F02D32046FFF752FF03B030BD7A
:1096C0000AD7A33CCDCCCCCC13B5044600F5F4505E
:1096D000183006F0A7FDD8B101A9134806F0D6FB53
:1096E00004F5C940783095F03FFF9DF8043088B903
:1096F000DC06C3F300100BD49DF805209107C2F3DC
:10970000400005D41C07C3F3C00001D402F00100DF
:1097100002B010BDD90603D41A07C3F3C000F7D5B1
:1097200083F08000C009F3E7B84A002070B500F567
:109730006455D5ED047AF5EEC07AF1EE10FA8AB0F0
:1097400004464FF0000305F110054ED90793089326
:10975000099307AE06AB00F5F45003AA04A90193E0
:10976000009605AB183007F06BFF304629F03EF944
:10977000D5ED007A9DED047ADDED036AB4EEE70ADB
:10978000F1EE10FA04F5C042F4EEC77AACBF012343
:109790000023F1EE10FAF4EEE67A98BF0133D2F826
:1097A0005815F1EE10FA9CBF0133DBB219B192F8F3
:1097B0005C25D20706D477EEA76AB4EEE67AF1EE1E
:1097C00010FA10DAF4EEC77AF1EE10FA9CBF01330A
:1097D000DBB2012B07D82046FFF776FF80F00100AF
:1097E000C0B20AB070BD0120FBE70020F9E700001D
:1097F00070B500F5E045044695F8683E2BBB0126A0
:1098000085F8686E59F088F93246112158F036FF14
:10981000D5F8500E03685B6A9847B0B104F5405321
:1098200093F90E398BB1022B06D004F504410622C0
:109830002831204604F0D2FC04F5F640034ABDE886
:10984000704002214C305CF0ABBA70BD413112085F
:1098500038B500F5E043044693F8682E8AB1002538
:1098600083F8685E59F058F92A46112158F006FF2E
:1098700004F5F640034ABDE8384002214C305CF064
:109880008FBA38BDF0851208F0B585B00546684638
:109890000FF0D8FF05F5F4506946183007F06AFD5F
:1098A000D8B105F5C940783095F05EFE344C354EA0
:1098B00040B105F56453D3ED047AF5EEC07AF1EECC
:1098C00010FA0CD8238823F4FF7323F001032380BC
:1098D00028460023F373FFF7BBFF05B0F0BD284611
:1098E000FFF724FF074688B36378DB0705D42378A6
:1098F0000133DBB2092B05D82370637803F0010331
:10990000F373EAE7238823F4FF7323F0010343F49E
:109910008573238059F000F90222102158F0AEFE21
:10992000A6F04AFA6368C01A47F23053984209D940
:1099300005F5F640144A02214C305CF031FAA6F0ED
:109940003BFA60602846FFF753FFD6E72378002BE9
:10995000D3D0013B23702388C3F30803B3F5807F82
:10996000CBD1637860F30003637059F0D5F83A46C1
:10997000102158F083FE2846FFF76AFFBDE700BFBD
:1099800054B500209DB60020088612082DE9F84F36
:1099900000F5E0459146044695F8582E0F46002BF9
:1099A00071D042EA010385F8583E22B91BB1A6F0F6
:1099B00003FAC5F85C0E95F8603E53B195F8583E31
:1099C0003BB904F5F640464A4B4606214C305CF064
:1099D000E7F995F8603E95F8582E134085F8603EFB
:1099E000002B7BD1002A79D0A6F0E6F9D5F85C3EB1
:1099F000DFED3C6A04F5405AC01A0AF6041307EE7C
:109A0000900A93ED007AF8EE677A27EE267AF4EE64
:109A1000C77AF1EE10FA61DDD5F8503E04F507483B
:109A200008F1A808434559D004F504462836B34246
:109A300005D104F5C043D3F82031DB074ED504F53A
:109A4000F64B95F8583E284A85F8603E0BF14C0BD2
:109A50004B46042158465CF0A3F965F0E3FCD5F8C9
:109A6000502E04F5054348339A4214D1012F0DD1ED
:109A70009AF90839022B0ED158461C4ABDE8F84F16
:109A800004215CF08DB922EA01038CE7022F02D198
:109A90009AF90C39EEE79AF90039013B032B1DD8EE
:109AA000DFE803F00A10021704F507411922E43138
:109AB000204604F093FB88B919224146204604F061
:109AC0008DFB58B9314620461922BDE8F84F04F005
:109AD00085BB04F507411922E431EFE7BDE8F88FB3
